:020000040800F2
:10000000600B002035020008AD3A00089532000868
:10001000A93A0008B9070008994900080000000043
:100020000000000000000000000000000541000882
:100030006908000800000000FD3A000807410008B8
:100040004F0200084F0200084F0200084F0200084C
:100050004F0200084F0200084F0200084F0200083C
:100060004F0200084F0200084F0200084F0200082C
:10007000D9070008E9070008F9070008090800087F
:1000800019080008290800084F0200084F0200085C
:100090004F0200084F0200084F0200084F020008FC
:1000A00099410008A94100084F0200084F020008CA
:1000B0004F0200084F020008000000004F02000835
:1000C0004F0200084F0200084F0200084F020008CC
:1000D0004F0200084F020008514900084F02000873
:1000E0006B0800084F02000800000000000000003C
:1000F0000000000000000000000000000000000000
:10010000000000004F020008000000004F0200083D
:100110004F020008000000004F020008000000002D
:100120004F0200084F0200084F0200084F0200086B
:100130004F0200084F0200084F02000800000000B4
:100140004F0200084F0200084F0200084F0200084B
:100150004F0200084F0200084F0200084F0200083B
:100160004F0200084F0200084F0200080000000084
:10017000000000004F020008000000000000000026
:100180004F0200084F0200084F0200084F0200080B
:100190004F02000800F002F800F03CF80AA090E8D6
:1001A000000C82448344AAF10107DA4501D100F032
:1001B00031F8AFF2090EBAE80F0013F0010F18BFC3
:1001C000FB1A43F001031847B04C0000D04C00006C
:1001D000103A24BF78C878C1FAD8520724BF30C873
:1001E00030C144BF04680C60704700000023002445
:1001F00000250026103A28BF78C1FBD8520728BF37
:1002000030C148BF0B6070471FB504F0D1FD1FBD62
:1002100010B510BD00F0CFF81146FFF7F5FF04F060
:10022000E9FB00F0EDF803B4FFF7F2FF03BC00F0C8
:10023000F1F800000948804709480047FEE7FEE75B
:10024000FEE7FEE7FEE7FEE7FEE7FEE7FEE7FEE786
:1002500004480549054A064B7047000085410008DF
:100260009501000860050020600B00206007002059
:100270006007002053EA020C00F069802DE9F04B82
:100280004FF00006002B1FBFB3FA83F503FA05F405
:1002900024FA05F65E4012BF1643B2FA82F502FA5E
:1002A00005F4C5F120051EBF22FA05FC44EA0C0442
:1002B000203556EA044C4FEA144418BF641C4FF032
:1002C00000084FF00009904271EB030C39D300296C
:1002D00019BFB1FA81F701FA07F6B0FA80F700FA10
:1002E00007F6C7F120071EBF20FA07FC46EA0C06F6
:1002F0002037B6FBF4FCA7EB0507103F07F01F0BF8
:10030000CBF120060CFA0BFB2CFA06F644BFB346E1
:100310000026202FA4BF5E464FF0000B5BEA060CC0
:1003200008BF4FF0010B19EB0B09ABFB027C48EB4C
:100330000608C01B06FB02CC0BFB03CC71EB0C01C7
:10034000C1E70B46024641464846BDE8F08B13B56F
:100350004FF000004FF00001AFF30080BDE81C40FB
:1003600070474FF0000200B5134694469646203978
:1003700022BFA0E80C50A0E80C50B1F12001BFF45E
:10038000F7AF090728BFA0E80C5048BF0CC05DF8C4
:1003900004EB890028BF40F8042B08BF704748BF12
:1003A00020F8022B11F0804F18BF00F8012B704786
:1003B000704770477047754600F028F8AE46050054
:1003C0006946534620F00700854618B020B5FFF770
:1003D0003FFFBDE820404FF000064FF000074FF010
:1003E00000084FF0000B21F00701AC46ACE8C00953
:1003F000ACE8C009ACE8C009ACE8C0098D4670475C
:100400000446AFF300802046FFF70DFF0048704719
:10041000FC04002001491820ABBEFEE726000200C4
:100420007047000000B585B000228021124800F01E
:10043000A9FD01221102104800F0A4FD0020039044
:10044000049001900290A8208DF80C004FF6FF70E8
:10045000072301AA03A90090084801F035FF0020F6
:1004600006E001AA411C515C054A1154411CC8B266
:100470000628F6DB05B000BD00040048CC010020D2
:10048000030000203EB5044600200290019044F095
:1004900080008DF80800002280210F4800F072FDD6
:1004A000012211020C4800F06DFD052000F098FBC0
:1004B0004FF6FF70022301AA02A90090074801F03D
:1004C00003FF012000F08CFB01228021024800F094
:1004D00059FD9DF805003EBD00040048CC010020F8
:1004E0003EB505460C460020029001900022802176
:1004F000104800F047FD012211020E4800F042FDB5
:10050000052000F06DFB8DF808508DF809404FF67E
:10051000FF70022301AA02A90090074801F0D4FE4F
:10052000012000F05DFB01228021024800F02AFD3D
:100530003EBD000000040048CC01002008B50022A8
:1005400010214FF0904000F01DFD012000F048FB0D
:1005500000224FF480514FF0904000F013FD012035
:1005600000F03EFB012211034FF0904000F00AFD25
:10057000002000906946012000F074F813E000228A
:100580004FF480514FF0904000F0FCFC052000F04B
:1005900027FB012211034FF0904000F0F3FC694665
:1005A000012000F05FF89DF8020000F040000028F4
:1005B000E5D1012000F014FB0021012000F064F8D7
:1005C000012000F00DFB3C21022000F05DF801202D
:1005D00000F006FB0021032000F056F8012000F097
:1005E000FFFA2C21042000F04FF8012000F0F8FA67
:1005F0003A21052000F048F8012000F0F1FA00212E
:10060000082000F041F8012000F0EAFA102109204A
:1006100000F03AF8012000F0E3FA012210214FF037
:10062000904000F0AFFC012000F0DAFA08BD0000B5
:100630001CB50446002001904FF6FF70042301AA68
:1006400006490090064801F03FFE9DF80500207025
:10065000641C9DF8060020701CBD000015000020E1
:100660006801002038B505460C460020009045F092
:1006700020008DF80000032322466946014801F05E
:1006800081FF38BD680100207CB505460C4600207E
:10069000019045F040008DF804008DF806400020E0
:1006A000009003236A4601A9014801F06BFF7CBD5D
:1006B0006801002008B500200090002210214FF0B2
:1006C000904000F05FFC69460020FFF7CBFF01205F
:1006D00000F086FA9DF8020000F0010008B1012048
:1006E00008BD0020FCE7000008B52BA000680090C2
:1006F000642304226946294802F0FCFC322000F001
:100700006FFA4FF6FF7311222549244802F0F2FCDC
:10071000322000F065FA4FF6FF73122221491F487C
:1007200002F0E8FC322000F05BFA4FF6FF7316226D
:100730001D491A4802F0DEFC322000F051FA4FF653
:10074000FF7312221949154802F0D4FC322000F040
:1007500047FA4FF6FF7310221549104802F0CAFC01
:10076000322000F03DFA4FF4E1300C494860084671
:1007700002F0FAFB08B100F07EF80A2000F030FA2F
:100780004FF6FF7313220B49044802F0B3FC3220EA
:1007900000F026FA08BD0000AAAAAAAAE8030020D1
:1007A000BA4D0008CC4D0008DF4D0008F64D00089A
:1007B000094E00081A4E000800BFFEE710B50246B9
:1007C0000B460021002000BF03E0545C60404C1C3D
:1007D000E1B29942F9DB10BD10B5024800F0ACF867
:1007E00010BD00003002002010B5024800F0A4F84F
:1007F00010BD00007802002010B5024800F09CF8FF
:1008000010BD0000C002002010B5024800F094F8AE
:1008100010BD00000803002010B5024800F08CF85D
:1008200010BD00006C04002010B5024800F084F8F0
:1008300010BD0000B404002030B590F8444004F02E
:100840001C050124AC40056C6C600468636084681E
:10085000102C04D10468A2600468E16003E004681D
:10086000A1600468E26030BD704710B54FF40060CD
:1008700000F092FA10BD72B600BFFEE701460022FA
:1008800091F82500022808D00420C86300BF00208A
:1008900081F8240000BF012070470868006820F03C
:1008A0000E000B6818600868006820F001000B68F3
:1008B000186091F8440000F01C03012098400B6C74
:1008C0005860012081F8250000BF002081F8240035
:1008D00000BF1046E0E770B50446002594F82500F7
:1008E000022803D00420E063012520E0206800688E
:1008F00020F00E00216808602068006820F00100E8
:100900002168086094F8440000F01C010120884030
:10091000216C4860012084F8250000BF002084F885
:10092000240000BFA06B10B12046A16B8847284669
:1009300070BD0146C86B704770B50446206C0568F1
:100940002068066894F8440000F01C0104208840E8
:100950002840E0B106F00400C8B12068006800F04B
:10096000200028B92068006820F004002168086091
:1009700094F8440000F01C0104208840216C486079
:10098000206B002856D02046216B884752E094F80F
:10099000440000F01C0102208840284018B306F0F3
:1009A000020000B32068006800F0200040B9206811
:1009B000006820F00A0021680860012084F8250002
:1009C00094F8440000F01C0102208840216C48602B
:1009D00000BF002084F8240000BFE06A50B3204626
:1009E000E16A884726E094F8440000F01C010820E2
:1009F00088402840F0B106F00800D8B120680068AF
:100A000020F00E002168086094F8440000F01C01FA
:100A100001208840216C48600120E06384F82500B3
:100A200000BF002084F8240000BF606B10B1204696
:100A3000616B884770BD000010B5014609B90120FF
:100A400010BD3E4B086898420BD23D4B0868C01A57
:100A50001423B0FBF3F08000486439480838086478
:100A60000AE0364B0868C01A1423B0FBF3F080008C
:100A70004864324808380864022081F82500086874
:100A8000026847F6F0708243D1E9020318430B690C
:100A900018434B6918438B691843CB6918430B6A99
:100AA00018430243086802608868B0F5804F3AD066
:100AB000234B083B086C98421BD1D0F8A80091F852
:100AC000443003F01C040F23A34098431C4BA03375
:100AD000186091F8443003F01C0348689840184BA4
:100AE000083BD3F8A8301843154B083BC3F8A800BF
:100AF00019E01248A030006891F8443003F01C045B
:100B00000F23A34098430D4BA033186091F8443055
:100B100003F01C0348689840084BA0331B68184337
:100B2000064BA03318600020C863012081F825001F
:100B3000002081F8240000BF82E700000804024082
:100B4000080002402DE9F04104460D4616461F46B6
:100B50004FF0000800BF94F82400012802D10220C1
:100B6000BDE8F081012084F8240000BF94F825003E
:100B700001282CD1022084F825000020E0632068A1
:100B8000006820F00100216808603B463246294693
:100B90002046FFF751FE206B30B12068006840F01E
:100BA0000E00216808600BE02068006820F0040057
:100BB000216808602068006840F00A002168086029
:100BC0002068006840F001002168086006E000BF6E
:100BD000002084F8240000BF4FF002084046BFE721
:100BE00070B5044600F0D4F906462546681C10B1DD
:100BF00004480078054400BF00F0CAF9801BA842F1
:100C0000FAD370BD2C00002010B50446B4F5006F77
:100C10007DD1002210214FF0904000F0B3F95A48E6
:100C2000007870B9594800780A280AD058480078E6
:100C30000A2803D101205449087002E002205249D9
:100C400008705148007804287ED04F48007830B1B1
:100C500001282BD0022845D0032876D15DE04D48ED
:100C6000FFF7E6FC4A4800780A2807D13C21022019
:100C7000FFF70AFD01204449087006E00C2102201C
:100C8000FFF702FD022040490870012291024FF057
:100C9000904000F077F900224FF480614FF09040CF
:100CA00000F070F900203949087065E03948801E6D
:100CB000FFF7BEFC0C210220FFF7E6FC01229102A7
:100CC0004FF0904000F05EF900224FF480614FF049
:100CD000904000F057F900202D49087002202A4961
:100CE000087049E02B48001FFFF7A2FC03202649AB
:100CF00008702C210220FFF7C7FC012291024FF05F
:100D0000904000F03FF900224FF4806100E03AE0AB
:100D10004FF0904000F036F92EE01E48801FFFF79C
:100D200087FC04201849087018480078401C1749AF
:100D3000087017480078401C15490870134800785F
:100D40000A2807D11C2101E017E011E00220FFF77B
:100D50009BFC0CE00E4800780A2804D13C210220BC
:100D6000FFF792FC03E00C210220FFF78DFC03E06B
:100D700005200549087000BF00BF0348007804281B
:100D800001D1FFF74FFB10BD020000201D00002025
:100D90001E0000203B01002010B5044604480068F6
:100DA000204020B1024804602046FFF72DFF10BD0F
:100DB0001404014078B503460A460021C5E0012627
:100DC0008E40156805EA0604002C73D0157905F0ED
:100DD0000305012D04D0157905F00305022D13D16B
:100DE00098684E000325B540A8434E00D568B5402D
:100DF00028439860586801258D40A8431579C5F3AC
:100E000000158D4028435860157905F00305032D22
:100E100009D0D8684E000325B540A8434E00956818
:100E2000B5402843D860157905F00305022D13D18C
:100E3000CE0803F1200555F826004D07EE0E0F25CC
:100E4000B540A8434E07F60E1569B5402843CE08B5
:100E500003F1200545F8260018684E000325B5402B
:100E6000A843157905F003054E00B54028431860E6
:100E7000556805F44035002D66D000BF364D2D6E07
:100E800045F00105344E356635462D6E05F00105F9
:100E9000009500BF00BF4FEAB6358E0855F8260012
:100EA0008D072E0F0F25B540A843B3F1904F02D107
:100EB000002515E048E0294DAB4201D101250FE0A6
:100EC000274DAB4201D102250AE0264DAB4201D1AC
:100ED000032505E0244DAB4201D1042500E00725A0
:100EE0008E07360FB5402843204D8E0845F8260062
:100EF0001F4D2868A043556805F4801505B12043AF
:100F00001B4D28602D1D2868A043556805F4001569
:100F100005B12043164D2D1D2860154D2D1F286845
:100F2000A043556805F4003505B12043104D2D1F31
:100F300028602D1F2868A043556805F4803505B149
:100F400020430B4D083D2860491C1568CD40002DFD
:100F50007FF435AF78BD0000001002400004004867
:100F600000080048000C004800100048080001403C
:100F700008040140024613690B400BB1012000E058
:100F8000002070470AB1816100E081627047000073
:100F900001480068704700002400002003480068F2
:100FA000034909780844014908607047240000207B
:100FB0002C00002010B50024032000F0A9F80F2019
:100FC00000F008F808B1012401E000F02FF82046F5
:100FD00010BD000070B50446002511480078D8B156
:100FE0000F4800784FF47A71B1FBF0F00D490968B1
:100FF000B1FBF0F6304601F0DFFB58B9102C07D2F8
:1010000000222146501E00F045F80748046004E025
:10101000012502E0012500E00125284670BD000001
:101020002C000020300000202800002008B500BF60
:101030000D48006E40F001000B4908660846006E3E
:1010400000F00100009000BF00BF00BF0846806DA7
:1010500040F0805088650846806D00F08050009018
:1010600000BF00BF08BD0000001002400146084656
:1010700000280DDB00BF00BF00F01F0301229A40D3
:1010800043099B0003F1E023C3F8002100BF00BF28
:1010900000BF70472DE9F05F80460D4616460027D9
:1010A00003F07CFC074639462A46334601F0070028
:1010B000C0F1070ABAF1040F02D94FF0040A01E0A7
:1010C000C0F1070AD14600F1040ABAF1070F02D2B3
:1010D0004FF0000A01E0A0F1030AD4464FF0010AE4
:1010E0000AFA09FAAAF1010A0AEA020A0AFA0CFA49
:1010F0004FF0010B0BFA0CFBABF1010B0BEA030BEE
:101100004AEA0B042146404603F050FCBDE8F09F3C
:1011100000BF00F00702064B19684FF6FF031940A5
:10112000044B0B4343EA0221014B196000BF704797
:101130000CED00E00000FA050246B2F5007F2AD16E
:101140001D48006800F4C060B0F5007F32D01A4836
:10115000006820F4C06040F40070174B1860174816
:10116000006832235843164BB0FBF3F0411C00E0FB
:10117000491E1148406900F48060B0F5806F01D1CC
:101180000029F5D10C48406900F48060B0F5806F0B
:1011900010D1032070470848006800F4C060B0F523
:1011A000806F07D00448006820F4C06040F480607D
:1011B000014B18600020EDE7007000403000002077
:1011C00040420F000248006800F4C0607047000011
:1011D000007000402DE9F84304460025A846208809
:1011E00000F40060B0F5006F26D1E06C68B1B0F596
:1011F000000F03D0B0F5400F0ED10CE0F748C068E7
:1012000040F48030F549C86008E00021201D02F05C
:1012100077FC054602E001E0012500BF00BF55B99B
:10122000EE488830006820F44000E16C0843EB4948
:10123000C1F8880000E0A846206800F40030B0F54E
:10124000003F75D14FF00009E448806D012121EA8B
:10125000107078B100BFE148806D40F08050DF49E8
:1012600088650846806D00F08050009000BF00BF88
:101270004FF00109DA48006840F48070D8490860EE
:10128000FFF786FE074606E0FFF782FEC01B022836
:1012900001D9032505E0D248006800F480700028D9
:1012A000F2D000BF7DBBCD489030006800F440769E
:1012B000CEB1606EB04216D0C8489030006820F4BD
:1012C0004076C648D0F8900040F48030C349C1F859
:1012D00090000846D0F8900020F48030C1F89000CB
:1012E0000846C0F8906006F00100A8B1FFF750FE74
:1012F000074609E0FFF74CFEC01B41F288318842E7
:1013000002D9032507E016E0B4489030006800F0E9
:1013100002000028EED000BF5DB9B04890300068F0
:1013200020F44070616E0843AC49C1F8900003E0BE
:101330000CE0A84600E0A846B9F1010F05D1A74886
:10134000806D20F08050A549886500BF207800F0AE
:10135000010048B1A1488830006820F00300216AEC
:1013600008439E49C1F88800207800F00200022856
:1013700009D19A488830006820F00C00616A08435F
:101380009649C1F88800207800F00400042809D1AB
:1013900092488830006820F03000A16A08438F49E5
:1013A000C1F88800207800F00800082809D18B488F
:1013B0008830006820F0C000E16A08438749C1F81E
:1013C0008800207800F02000202809D18348883048
:1013D000006820F44060216B08438049C1F8880010
:1013E000208800F40070B0F5007F09D17B48883078
:1013F000006820F44020616C08437849C1F88800F7
:10140000208800F48060B0F5806F09D1734888307F
:10141000006820F44010A16C08437049C1F88800AE
:10142000207800F04000402809D16C4888300068DE
:1014300020F44050616B08436849C1F88800207867
:1014400000F08000802809D164488830006820F4CA
:101450004040A16B08436149C1F88800208800F42E
:101460008070B0F5807F09D15C488830006820F436
:101470004030E16B08435949C1F88800206800F406
:101480008010B0F5801F09D154489C30006820F0CE
:101490000300216C08435149C1F89C00208800F4E6
:1014A0000050B0F5005F1FD14C488830006820F034
:1014B0004060216D0843494988310860206DB0F1D2
:1014C000006F06D14548C06840F480104349C860A9
:1014D0000AE0206DB0F1806F06D10121201D02F0DD
:1014E0000FFB054605B1A846206800F40020B0F5C2
:1014F000002F1FD139488830006820F04060616DAE
:101500000843364988310860606DB0F1006F06D13C
:101510003248C06840F480103049C8600AE0606D0D
:10152000B0F1806F06D10121201D02F0E9FA0546D5
:1015300005B1A846206800F48020B0F5802F1FD1A7
:1015400026488830006820F04060A16D0843234998
:1015500088310860A06DB0F1006F06D11F48C068E7
:1015600040F480101D49C8600AE0A06DB0F1806FA2
:1015700006D10121201D02F0C3FA054605B1A84697
:10158000208800F48040B0F5804F14D11348883093
:10159000006820F04050E16D084310498831086030
:1015A000E06DB0F1805F06D10221201D02F0A8FAA3
:1015B000054605B1A846206800F48030B0F5803FAC
:1015C00009D106488830006820F00040216E0843A9
:1015D0000249C1F888004046BDE8F8830010024087
:1015E000007000402DE9F04104460D4614B9012079
:1015F000BDE8F0815548006800F00700A8420ED20F
:101600005248006820F00700284350490860084607
:10161000006800F00700A84201D00120E8E7207828
:1016200000F00100002840D06068032806D1484837
:10163000006800F00070D8B90120D9E7606802287E
:1016400006D14348006800F4003088B90120CFE794
:10165000606830B93E48006800F0020040B90120DF
:10166000C6E73B48006800F4806008B90120BFE786
:101670003748806820F00300616808433449886077
:10168000FFF786FC064608E0FFF782FC801B41F26C
:101690008831884201D90320AAE72D48806800F0EC
:1016A0000C006168B0EB810FEED1207800F00200F1
:1016B000022807D12648806820F0F000A16808437E
:1016C000234988602148006800F00700A8420ED92D
:1016D0001E48006820F0070028431C49086008469F
:1016E000006800F00700A84201D0012080E72078C0
:1016F00000F00400042807D11548806820F4E06059
:10170000E168084312498860207800F00800082842
:1017100008D10F48806820F46050216940EAC10078
:101720000B49886000F046F809498968C1F3031144
:10173000084A515C01F01F01C8400749086007488A
:101740000068FFF747FC0746384651E70020024093
:1017500000100240304E0008300000202800002019
:1017600001480068704700003000002000B5FFF716
:10177000F7FF05498968C1F30221044A515C01F071
:101780001F01C84000BD000000100240404E00088C
:1017900000B5FFF7E5FF05498968C1F3C221044A96
:1017A000515C01F01F01C84000BD00000010024064
:1017B000404E0008F0B500230020DFF8D4C0DCF86C
:1017C00008C00CF00C01DFF8C8C0DCF80CC00CF04D
:1017D000030719B10C291ED1012F1CD1DFF8B0C0AD
:1017E000DCF800C00CF0080CBCF1000F06D1DFF8EB
:1017F000A0C0DCF894C0CCF3032305E0DFF890C070
:10180000DCF800C0CCF30313DFF888C05CF82330A9
:1018100041B9184606E0042901D11F4802E0082911
:1018200000D11E480C2932D1DFF864C0DCF80CC0AE
:101830000CF00304012C09D0022C02D0032C04D19B
:1018400001E0154A04E0154A02E000BF1A4600BF55
:1018500000BFDFF83CC0DCF80CC0CCF3021C0CF17C
:101860000106DFF82CC0DCF80CC0CCF3062C0CFB16
:1018700002FCBCFBF6F2DFF818C0DCF80CC0CCF3BD
:10188000416C0CF1010C4FEA4C05B2FBF5F0F0BDD8
:1018900000100240484E00080024F40000127A00B4
:1018A0002DE9F843044614B90120BDE8F883F9484E
:1018B000806800F00C06F748C06800F00307207845
:1018C00000F01000102877D11EB10C2E76D1012F18
:1018D00074D1F048006800F0020018B1A06908B99E
:1018E0000120E2E7EB48216A006800F0080020B11F
:1018F000E848006800F0F00005E0E6489430006831
:1019000000F47060000981421FD9206A02F0BCF91E
:1019100008B10120C9E700BFDE48006840F00800B8
:10192000DC4908600846006820F0F000216A08439E
:10193000D849086000BF0846406820F47F40E1694C
:1019400040EA0120D34948601FE000BFD148006849
:1019500040F00800CF4908600846006820F0F00019
:10196000216A0843CB49086000BF0846406820F45C
:101970007F40E16940EA0120C64948602EB9206AEB
:1019800002F082F908B101208FE7FFF713FFC14988
:101990008968C1F30311C04A515C01F01F01C840BE
:1019A000BE490860BE480068FFF714FB8046B8F1E6
:1019B000000F4ED0404678E74BE0FFE7A06980B3C8
:1019C000B448006840F00100B2490860FFF7E0FA4F
:1019D000054606E0FFF7DCFA401B022801D9032088
:1019E00063E7AC48006800F002000028F2D000BFB6
:1019F000A848006840F00800A6490860084600684A
:101A000020F0F000216A0843A249086000BF0846A0
:101A1000406820F47F40E16940EA01209D49486028
:101A200017E0FFE79B48006820F001009949086033
:101A3000FFF7AEFA054606E0FFF7AAFA401B0228B8
:101A400001D9032031E79348006800F00200002824
:101A5000F2D1207800F0010000285CD0082E03D0DD
:101A60000C2E0AD1032F08D18A48006800F40030F8
:101A700088B3606878BB012017E700BF6068B0F5E5
:101A8000803F06D18348006840F480308149086077
:101A90001AE06068B0F5A02F0BD17E48006840F4D2
:101AA00080207C4908600846006840F48030086067
:101AB0000AE07848006820F48030764908600846DB
:101AC000006820F48020086000BF606890B1FFF7D4
:101AD0005FFA054607E01EE0FFF75AFA401B64284C
:101AE00001D90320E1E66B48006800F400300028CB
:101AF000F2D010E0FFF74CFA054606E0FFF748FA8F
:101B0000401B642801D90320CFE66248006800F436
:101B100000300028F2D1207800F00200022852D1D3
:101B2000042E03D00C2E14D1022F12D15948006874
:101B300000F4806018B1E06808B90120B5E65548A6
:101B4000406820F0FE40217C40EA01605149486035
:101B500039E0E06800B34F48006840F480704D49B8
:101B60000860FFF715FA054606E0FFF711FA401B7B
:101B7000022801D9032098E64648006800F48060F6
:101B80000028F2D04348406820F0FE40217C40EA23
:101B900001604049486016E03E48006820F48070CB
:101BA0003C490860FFF7F4F9054606E0FFF7F0F955
:101BB000401B022801D9032077E63648006800F46C
:101BC00080600028F2D1207800F00800082836D183
:101BD0006069D0B12F489430006840F001002D4971
:101BE000C1F89400FFF7D4F9054606E0FFF7D0F9F5
:101BF000401B022801D9032057E62648943000688C
:101C000000F002000028F1D019E02248943000686A
:101C100020F001001F49C1F89400FFF7B9F905460B
:101C200006E0FFF7B5F9401B022801D903203CE686
:101C300018489430006800F002000028F1D12078A4
:101C400000F00400042872D14FF000091148806DA3
:101C500000F0805078B900BF0E48806D40F0805091
:101C60000C4988650846806D00F08050009000BFE8
:101C700000BF4FF001090B48006800F4807000BB02
:101C80000848006840F4807006490860FFF780F952
:101C9000054610E000100240304E000830000020E1
:101CA0002800002000700040FFF772F9401B022856
:101CB00001D90320F9E5D048006800F480700028BD
:101CC000F2D000BFA068012808D1CC48006840F0DD
:101CD0000100CA499039C1F8900021E0A0680528A8
:101CE0000FD1C648006840F00400C4499039C1F8DB
:101CF00090000846D0F8900040F00100C1F8900034
:101D00000EE0BE48006820F00100BC499039C1F8DF
:101D100090000846D0F8900020F00400C1F8900030
:101D200000BFA068A0B1FFF733F9054609E02EE037
:101D3000FFF72EF9401B41F28831884201D9032078
:101D4000B3E5AE48006800F002000028F0D012E0D1
:101D5000FFF71EF9054608E0FFF71AF9401B41F2AC
:101D60008831884201D903209FE5A448006800F02B
:101D700002000028F0D1B9F1010F07D19F48903837
:101D8000806D20F080509D499039886500BF207893
:101D900000F02000202838D1606AD8B19748083078
:101DA000006840F0010095499039C1F89800FFF7AC
:101DB000EFF8054606E0FFF7EBF8401B022801D9D3
:101DC000032072E58D480830006800F0020000280A
:101DD000F1D01AE089480830006820F001008749F6
:101DE0009039C1F89800FFF7D3F8054606E0FFF7F1
:101DF000CFF8401B022801D9032056E57F48083060
:101E0000006800F002000028F1D1A06A00287DD00F
:101E1000A06A02287BD179489038C76807F003018F
:101E2000E06A814225D107F07001206B401EB1EBC2
:101E3000001F1ED107F4FE41606BB1EB002F18D1DB
:101E400007F078413820005DB1EBC06F11D107F485
:101E5000C001A08F0122C2EB5000B1EB405F08D15E
:101E600007F0C0614020005DC2EB5000B1EB406F55
:101E700066D00C2E62D061489038006800F0806017
:101E800008B1012011E55D489038006820F08070AD
:101E90005A4990390860FFF77BF8054606E0FFF7DE
:101EA00077F8401B022801D90320FEE453489038FC
:101EB000006800F000700028F1D1D4E90B10401E3A
:101EC00041EA0011606B41EA0021A08F0122C2EBC0
:101ED000500041EA40514020005DC2EB500041EA11
:101EE00040613820005D41EAC06044499039C968CA
:101EF000434A1140084341499039C8600846006888
:101F000040F0807008600846C06801E05BE03DE09A
:101F100040F08070C860FFF73BF8054606E0FFF729
:101F200037F8401B022801D90320BEE4334890381B
:101F3000006800F000700028F1D05AE00120B4E4FD
:101F40002E489038006800F00070E0BB2B489038B5
:101F5000006840F080702949903908600846C068E0
:101F600040F08070C860FFF713F8054606E0FFF701
:101F70000FF8401B022801D9032096E41F4890382F
:101F8000006800F000700028F1D032E00C2E2ED056
:101F90001A489038006820F080701849903908601D
:101FA0000846006800F0006020B90846C06820F0CC
:101FB0000300C86011489038C068124908400F49B2
:101FC0009039C86000E014E0FEF7E2FF054606E045
:101FD000FEF7DEFF401B022801D9032065E4074815
:101FE0009038006800F000700028F1D101E0012075
:101FF0005BE4002059E400000070004090100240B3
:102000008C809D01FFFFEEFE704770B504460CB951
:10201000012070BD606A38B96068B0F5827F00D178
:1020200005E00021E16102E0002121616161002100
:10203000A16294F85D0028B9002084F85C00204675
:1020400000F05CF8022084F85D002068006820F051
:10205000400021680860E068B0F5E06F01D9002514
:1020600001E04FF48055E068B0F5706F05D0E0688E
:10207000B0F5E06F01D00021A162A08800F4827069
:10208000218901F404410843217C01F00201084345
:10209000217D01F001010843218B01F40071084307
:1020A000217F01F0380108432021095D01F0800102
:1020B0000843218D01F40051084321680860042180
:1020C000A06901EA104094F8241001F010010843BF
:1020D00094F8341001F008010843A18901F47061FB
:1020E000084305F4805108432168486000202066B9
:1020F000012084F85D0000208BE7000010B586B059
:102100000446142101A8FEF72CF96549206888428D
:102110005FD100BF6348006E40F48050614908669B
:102120000846006E00F48050009000BF00BF00BF62
:102130000846C06C40F00100C8640846C06C00F05E
:102140000100009000BF00BFE0200190022002903B
:1021500000200390032004900520059001A94FF072
:102160009040FEF727FE5048504908600120486023
:1021700000214E488160C1608021016100214161E0
:102180008161C1610162FEF757FC08B1FEF773FB84
:1021900000BF4648A065846200BF434814304449EC
:1021A0000860012048601021414881600021C16021
:1021B00080210161002141618161C1610162FEF7FD
:1021C0003BFC08B1FEF757FB00BF394860658462ED
:1021D00064E038492068884260D100BF3148806D92
:1021E00040F480402F4988650846806D00F48040A7
:1021F000009000BF00BF00BF0846C06C40F0020066
:10220000C8640846C06C00F00200009000BF00BF28
:102210004FF44440019002200290002003900320DC
:1022200004900520059001A92348FEF7C3FD1E4830
:102230002830224908600120486000211F48816041
:10224000C16080210161002141618161C161016240
:10225000FEF7F2FB08B1FEF70EFB00BF1748A065C2
:10226000846200BF10483C30154908600120486076
:102270001021134881600021C1608021016100218B
:1022800041618161C1610162FEF7D6FB08B1FEF7D1
:10229000F2FA00BF0A486065846200BF06B010BD54
:1022A00000300140001002401C00024030020020BB
:1022B000780200200038004000040048C0020020DE
:1022C00008030020704770472DE9FF5F04468946E8
:1022D00092461D460E9E012001900020009000BFF6
:1022E00094F85C00012803D1022004B0BDE8F09FFF
:1022F000012084F85C0000BFFEF74AFE074694F810
:102300005D00029060680390A846AB4602980128E1
:102310000BD00398B0F5827F04D1A06810B9029861
:10232000042802D00220009022E1B9F1000F03D06E
:10233000BAF1000F00D015B90120009018E194F80F
:102340005D00042802D0052084F85D00002020668E
:10235000C4F840A0A4F84650A4F84450C4F83890FB
:10236000E587A587E0642065E068B0F5E06F02D8F6
:10237000BBF1010F06D92068406820F48050216825
:10238000486005E02068406840F48050216848605B
:102390002068006800F04000402805D020680068F0
:1023A00040F0400021680860E068B0F5E06F4ED969
:1023B000606810B1B8F1010F09D1A06B00882168E5
:1023C000C860A06B801CA063E08F401EE08736E0F1
:1023D0002068806800F00200022810D1E08F70B100
:1023E000019801280BD1A06B00882168C860A06B00
:1023F000801CA063E08F401EE087002001902068D1
:10240000806800F0010080B1B4F8460068B120682F
:10241000C068216C0880206C801C2064B4F84600E1
:10242000401EA4F8460001200190FEF7B1FDC01B3C
:10243000B04204D3701C10B10320009098E0E08FEC
:102440000028C5D1B4F846000028C1D185E06068F5
:1024500010B1B8F1010F17D1E08F01280AD9A06B94
:1024600000882168C860A06B801CA063E08F801E7C
:10247000E08709E0A06B007821680873A06B401C1E
:10248000A063E08F401EE08760E02068806800F075
:10249000020002281ED1E08FE0B10198012819D175
:1024A000E08F01280AD9A06B00882168C860A06B62
:1024B000801CA063E08F801EE08709E0A06B00789D
:1024C00021680873A06B401CA063E08F401EE0876A
:1024D000002001902068806800F0010058B3B4F833
:1024E000460040B3B4F84600012816D92068C068F9
:1024F000216C0880206C801C2064B4F84600801E8B
:10250000A4F84600B4F84600012812D820684068B4
:1025100040F48050216848600BE02068007B216C0B
:102520000870206C401C2064B4F84600401EA4F8DB
:10253000460001200190FEF72BFDC01BB04201D3E5
:10254000701C00B916B90320009011E0E08F00283C
:102550009BD1B4F84600002897D13A463146204630
:1025600001F0B5FC18B1012000902020206600BFCA
:10257000012084F85D0000BF002084F85C0000BFEB
:102580000098B2E62DE9F04704460E4617461D4670
:102590004FF0000A00BF94F85C00012802D102202D
:1025A000BDE8F087012084F85C0000BF94F85D80EE
:1025B000D4F80490B8F1010F0AD0B9F5827F04D1A4
:1025C000A06810B9B8F1040F02D04FF0020ADFE0A2
:1025D0000EB107B115B94FF0010AD9E094F85D00CA
:1025E000042802D0052084F85D0000202066A66340
:1025F000A587E5872764A4F84450A4F84650E06412
:1026000020652068406820F4C04021684860E06888
:10261000B0F5E06F06D92068406820F4805021684A
:1026200048604DE02068406840F480502168486070
:10263000606D8069B0F5806F19D194F83C0000F0AE
:10264000010048B92068406820F480402168486053
:10265000E08F4010E0870AE02068406840F4804046
:1026600021684860E08F012101EB6000E087A06DE8
:102670008069B0F5806F23D12068406820F48050D5
:1026800021684860B4F8460000F0010058B920689D
:10269000406820F4005021684860B4F846004010BB
:1026A000A4F846000CE02068406840F4005021681F
:1026B0004860B4F84600012101EB6000A4F8460030
:1026C00094F85D00042806D13548A16D08633548AB
:1026D000A16DC86205E03448A16D08633348A16D5F
:1026E000C8623348A16D48630020A16D8863B4F8C7
:1026F0004630D4F800C00CF10C01226CA06DFEF73E
:1027000021FA48B1206E40F0100020664FF0010A17
:10271000012084F85D003BE02068406840F0010043
:10272000216848600020616D0863616DC862616D59
:102730004863616D8863E38FD4F800C00CF10C022C
:10274000A16B606DFEF7FEF948B1206E40F01000FD
:1027500020664FF0010A012084F85D0018E020682F
:10276000006800F04000402805D02068006840F074
:102770004000216808602068406840F0200021681F
:1027800048602068406840F002002168486000BF4F
:1027900000BF002084F85C0000BF504600E7000046
:1027A0004D3D0008693D00085B3D0008E53D00081F
:1027B000253D00087047704770B504462546681EE1
:1027C000B0F1807F01D301200FE0681E4FF0E021BF
:1027D00048610F214FF0FF3002F0E8F800204FF081
:1027E000E021886107200861002070BD70477047B4
:1027F000704710B504460CB9012010BD94F83D0097
:1028000028B9002084F83C00204600F029F8022076
:1028100084F83D00211D206801F0CEFC012084F8E1
:10282000480000BF84F83E0001213F2001554020B0
:10283000015541200155422001554320015500BF5B
:1028400000BF012084F84400452001554620015571
:102850004720015500BF012084F83D000020CCE74F
:1028600038B504461A492068884216D100BF194875
:10287000006E40F48030174908660846006E00F488
:102880008030009000BF00BF002211461820FEF7E4
:1028900001FC1820FEF7EAFB19E00F492068884286
:1028A00015D100BF0B48006E40F40030094908669E
:1028B0000846006E00F40030009000BF00BF002208
:1028C00011461920FEF7E6FB1920FEF7CFFB38BDB5
:1028D000004001400010024000440140014691F8D0
:1028E0003D00012801D001207047022081F83D0001
:1028F0000868C06840F001000B68D860144B086895
:1029000098420BD00868B0F1804F07D0114B08688F
:10291000984203D0104B0868984210D1086880682C
:102920000E4B00EA0302062A0FD0B2F5803F0CD00E
:102930000868006840F001000B68186005E008684E
:10294000006840F001000B6818600020CCE7000030
:10295000002C01400004004000400140070001003D
:10296000704710B5044620680069C0F34000D8B134
:102970002068C068C0F34000B0B16FF00200216869
:102980000861012020772068806900F0030018B1F9
:102990002046FFF7E5FF05E0204600F0BEF82046A0
:1029A00000F0BCF80020207720680069C0F38000A8
:1029B000D8B12068C068C0F38000B0B16FF00400E7
:1029C00021680861022020772068806900F4407047
:1029D00018B12046FFF7C4FF05E0204600F09DF83F
:1029E000204600F09BF80020207720680069C0F3A3
:1029F000C000D8B12068C068C0F3C000B0B16FF0AB
:102A0000080021680861042020772068C06900F070
:102A1000030018B12046FFF7A3FF05E0204600F0B1
:102A20007CF8204600F07AF80020207720680069C2
:102A3000C0F30010D8B12068C068C0F30010B0B176
:102A40006FF0100021680861082020772068C069B5
:102A500000F4407018B12046FFF782FF05E02046E1
:102A600000F05BF8204600F059F80020207720683D
:102A7000006900F0010058B12068C06800F0010052
:102A800030B16FF0010021680861204600F048F87D
:102A900020680069C0F3C01058B12068C068C0F356
:102AA000C01030B16FF08000216808612046FFF748
:102AB0009EFE20680069C0F3002058B12068C068FD
:102AC000C0F3C01030B16FF48070216808612046F7
:102AD000FFF78CFE20680069C0F3801058B12068B1
:102AE000C068C0F3801030B16FF040002168086109
:102AF000204600F037F820680069C0F3401058B154
:102B00002068C068C0F3401030B16FF02000216829
:102B100008612046FFF76CFE10BD7047704700004B
:102B200010B504460D48844217D1012280210C487B
:102B3000FEF728FA012210214FF09040FEF722FA0A
:102B4000012291024FF09040FEF71CFA00224FF450
:102B500080614FF09040FEF715FA10BD9C030020F5
:102B60000004004870477047704770B50446A56F71
:102B7000E66F2068806800F08000802823D1212D36
:102B800021D100BF00BF2168083151E8001F21F0AA
:102B900080002168083141E80002002AF3D100BF1B
:102BA000E06E68B1E06EFDF769FE48B1E06EFDF7DA
:102BB000C0FE202804D11020C4F88000032070BD7E
:102BC000204601F0A4FC2068806800F04000402806
:102BD00023D1222E21D100BF00BF2168083151E846
:102BE000001F21F040002168083141E80002002A5E
:102BF000F3D100BF206F68B1206FFDF73FFE48B1F1
:102C0000206FFDF796FE202804D11020C4F8800024
:102C10000320D4E7204601F031FC0020CFE77047C5
:102C20002DE9F04704462068C569206806682068D9
:102C3000876840F60F0005EA0009B9F1000F0CD1D2
:102C400005F0200048B106F0200030B1606E10B1F0
:102C50002046616E8847BDE8F087B9F1000F7DD04E
:102C600007F0010018B9BE4830400028F7D005F041
:102C7000010058B106F4807040B10120216808625B
:102C8000D4F8800040F00100C4F8800005F0020094
:102C900058B107F0010040B1022021680862D4F861
:102CA000800040F00400C4F8800005F0040058B132
:102CB00007F0010040B1042021680862D4F88000C8
:102CC00040F00200C4F8800005F0080070B106F082
:102CD000200010B907F0010040B108202168086207
:102CE000D4F8800040F00800C4F8800005F40060CB
:102CF00060B106F0806048B14FF40060216808625E
:102D0000D4F8800040F02000C4F88000D4F880009F
:102D100000284BD005F0200038B106F0200020B18B
:102D2000606E10B12046616E8847D4F880A020689C
:102D3000806800F04000402802D00AF0280070B3FC
:102D4000204601F09BFB2068806800F0400040288E
:102D500021D100BF00BF2168083100E027E051E821
:102D6000001F21F040002168083141E80002002ADC
:102D7000F1D100BF206F50B17A48216F8863206F76
:102D8000FDF7A9FD90B1206F816B88470EE02046CA
:102D9000FFF745FF0AE02046FFF741FF06E0FFE7A7
:102DA0002046FFF73CFF0020C4F8800053E7206E68
:102DB00001286FD105F0100000286BD006F010003C
:102DC0000028FAD01020216808622068806800F08E
:102DD000400040285FD1206F006840681FFA80F8EB
:102DE000B8F1000F55D0B4F85800404551DDA4F8B3
:102DF0005A80206F0068006800F02000E8BB00BF28
:102E000000BF216851E8001F21F48070226842E869
:102E100000010029F5D100BF00BF00BF21680831C3
:102E200051E8001F21F001002168083141E800024B
:102E3000002AF3D100BF00BF00BF2168083151E86C
:102E4000001F21F040002168083141E80002002AFB
:102E5000F3D100BF2020E0670020206600BF00BF44
:102E6000216851E8001F21F01000226842E80001AB
:102E70000029F5D100BF206F00E001E0FDF7FEFC66
:102E8000B4F85800B4F85A20801A81B22046FFF7EF
:102E90006AFEE0E63EE034F8580F6188401A1FFAF7
:102EA00080F86088583CA0B3B8F1000F31D000BF63
:102EB00000BF216851E8001F21F49070226842E8A9
:102EC00000010029F5D100BF00BF00BF2168083113
:102ED00051E8001F21F001002168083141E800029B
:102EE000002AF3D100BF2020E06700202066606642
:102EF00000BF00BF216851E8001F21F010002268C8
:102F000042E800010029F5D100BF41462046FFF705
:102F10002AFEA0E605F4801050B107F4800038B115
:102F20004FF48010216808622046FFF71DFE92E6EC
:102F300005F0800040B106F0800028B1A06E10B10D
:102F40002046A16E884786E605F0400030B106F0C5
:102F5000400018B1204601F0C3FA7CE600BF7AE6D3
:102F600020010004A743000810B504460CB9012055
:102F700010BDA06900B100E000BFA06F28B900201B
:102F800084F87400204600F029F82420A067206807
:102F9000006820F0010021680860204601F0C8FAAE
:102FA000012800D1E4E7606A10B1204601F046F93B
:102FB0002068406820F4904021684860206880685C
:102FC00020F02A00216888602068006840F0010035
:102FD00021680860204601F0ADF9C9E710B5A0B03E
:102FE000044614211BA8FDF7BCF9682101A8FDF7D0
:102FF000B8F93B492068884270D102200190002036
:103000000A9001A8FEF7E6F808B1FDF734FC00BF0E
:103010003448806D40F40030324988650846806D40
:1030200000F40030009000BF00BF00BF0846C06C35
:1030300040F00100C8640846C06C00F00100009038
:1030400000BF00BF0C201B9002201C9000201D9090
:103050001E9007201F901BA94FF09040FDF7AAFE7D
:103060002148224908600220486000211F488160F1
:10307000C16080210161002141618161C161016202
:10308000FDF7DAFC08B1FDF7F6FB00BF1748206733
:10309000846200BF1448143015490860022048605B
:1030A0001021134881600021C1608021016100214D
:1030B00041618161C1610162FDF7BEFC08B1FDF7AC
:1030C000DAFB00BF0A48E066846200BF00221146B6
:1030D0002620FDF7DFFF2620FDF7C8FF20B010BD3A
:1030E00000440040001002406C0002406C040020CC
:1030F000B40400202DE9F84F04460E4617469946C1
:10310000A06F20285DD106B117B90120BDE8F88F66
:1031100000BF94F87400012801D10220F6E70120D5
:1031200084F8740000BF0020503420632120A06286
:10313000FDF72EFF824627806780503CA068B0F5DF
:10314000805F04D1206910B90025B04602E0354601
:103150004FF0000800BF002084F8740000BF1DE09D
:103160005346002280212046CDF8009001F074FBE8
:1031700008B10320CAE745B9B8F80000C0F3080059
:103180002168088508F1020803E02878216808858D
:103190006D1CB4F85200401EA4F85200B4F852005E
:1031A0000028DDD15346002240212046CDF8009072
:1031B00001F052FB08B10320A8E72020A0670020FF
:1031C000A4E70220A2E7000070B504460E461546AB
:1031D000A06F202853D106B10DB9012070BD00BFEA
:1031E00094F87400012801D10220F7E7012084F847
:1031F000740000BF44F84C6FA580E5800020606338
:103200002120E062206A4C3C00B31E48E16EC86297
:103210001D48E16E08631D48E16E48630020E16EC1
:103220008863236803F128022B46E16CE06EFDF70A
:1032300089FC58B11020C4F8800000BF002084F839
:10324000740000BF2020A0670120C7E7402021684C
:10325000086200BF002084F8740000BF00BF00BFF8
:103260002168083151E8001F41F0800021680831D1
:1032700041E80002002AF3D100BF0020AEE702209F
:10328000ACE70000194400086F440008BF43000881
:103290007047704700BFFEE710B5002201214FF0D4
:1032A0009040FDF76FFE002202214FF09040FDF7A5
:1032B00069FE022001F08EFB012211464FF0904082
:1032C000FDF760FE022001F085FB002201214FF096
:1032D0009040FDF757FE012202214FF09040FDF78C
:1032E00051FE10BD10B5002201214FF09040FDF7B6
:1032F00049FE012202214FF09040FDF743FE0220DB
:1033000001F068FB012211464FF09040FDF73AFEB4
:10331000022001F05FFB002201214FF09040FDF7F9
:1033200031FE012202214FF09040FDF72BFE10BD2F
:1033300070B506460D4600240BE0691EA14201DD72
:10334000012100E00021084600F006F83055601C1D
:10335000C4B2AC42F1DB70BD70B505460024002656
:103360001DE0002201214FF09040FDF70BFE0220EE
:1033700001F030FB012211464FF09040FDF702FEB4
:103380006006040E02214FF09040FDF7F3FD08B1F6
:10339000601CC4B2012001F01DFB701CC6B2082ED7
:1033A000DFDB15B9FFF79EFF01E0FFF775FF204651
:1033B00070BD70B50446002201214FF09040FDF72A
:1033C000E1FD002527E0E00930B1012202214FF0A4
:1033D0009040FDF7D7FD05E0002202214FF090401C
:1033E000FDF7D0FD6006040E022001F0F3FA012281
:1033F00011464FF09040FDF7C5FD022001F0EAFABA
:10340000002201214FF09040FDF7BCFD022001F0A9
:10341000E1FA681CC5B2082DD5DB70BD10B50122DC
:1034200002214FF09040FDF7ADFD012211464FF013
:103430009040FDF7A7FD042001F0CCFA0022022104
:103440004FF09040FDF79EFD042001F0C3FA0022EA
:1034500001214FF09040FDF795FD10BD10B5002201
:1034600001214FF09040FDF78DFD002202214FF029
:103470009040FDF787FD042001F0ACFA01221146CF
:103480004FF09040FDF77EFD012202214FF0904069
:10349000FDF778FD042001F09DFA10BD10B5002461
:1034A000012202214FF09040FDF76CFD012001F058
:1034B00091FA012211464FF09040FDF763FD012083
:1034C00001F088FA07E0601CC4B2FA2C03DDFFF7B4
:1034D000C5FF012010BD02214FF09040FDF74AFDCD
:1034E0000028F0D1002201214FF09040FDF74AFD65
:1034F0000020EFE73EB5044600200290019044F022
:1035000080008DF80800012280211048FDF73AFD67
:1035100000224FF480710D48FDF734FD0520FDF7C2
:103520005FFB4FF6FF70022301AA02A90090084832
:10353000FEF7CAFE0120FDF753FB012211020348EA
:10354000FDF720FD9DF805003EBD00000004004889
:10355000CC0100203EB505460C46002002900190AB
:10356000012280210F48FDF70DFD00224FF48071EC
:103570000C48FDF707FD8DF808508DF809404FF60F
:10358000FF70022301AA02A900900748FEF79CFEE3
:103590000120FDF725FB012211020248FDF7F2FC94
:1035A0003EBD000000040048CC01002010B5002101
:1035B000084600F084F80021012000F080F8002186
:1035C000022000F07CF80021032000F078F80021B0
:1035D000042000F074F80021052000F070F80021AC
:1035E000062000F06CF85021082000F068F8072150
:1035F000092000F064F81C210A2000F060F8B121D5
:103600000C2000F05CF8B1210D2000F058F8B12139
:103610000E2000F054F8B1210F2000F050F80121E5
:10362000112000F04CF80021122000F048F810BDE5
:1036300010B50024FF2000F024F80446152C01D119
:10364000012010BD0020FCE770B504460D46FFF7D1
:10365000E5FEAE20FFF7ADFEFFF720FF0720FFF7E6
:10366000A8FEFFF71BFFFFF7D9FEAF20FFF7A1FE73
:10367000FFF714FF29462046FFF75AFEFFF7EEFE3C
:1036800070BD70B504460025FFF7C8FEAE20FFF7F9
:1036900090FEFFF703FFE0B2FFF78BFEFFF7FEFEA1
:1036A000FFF7BCFEAF20FFF784FEFFF7F7FE002018
:1036B000FFF752FE0546FFF7D1FE284670BD70B5F4
:1036C00004460D46FFF7AAFEAE20FFF772FEFFF795
:1036D000E5FEE0B2FFF76DFEFFF7E0FE2846FFF7DC
:1036E00068FEFFF7DBFEFFF7B9FE70BD10B5D6210F
:1036F0002020FCF7F5FE04212220FCF7F1FE042136
:103700002320FCF7EDFEC8211020FCF7E9FEFC2188
:103710002020FFF71FFF00212120FFF71BFF802142
:103720002220FFF717FF0C212320FFF713FF0021B2
:103730002420FFF70FFF10BD08B5002000900F20D8
:10374000FCF7A0FE8DF800000F20FFF7D3FE8DF8E8
:1037500001009DF80000682801D1012000E0002050
:103760009DF801103D2901D1012100E00021084010
:1037700008B1012008BD0020FCE7000008B500BF2B
:103780001E48806C40F001001C4988640846806C2B
:1037900000F00100009000BF00BF002211460C2085
:1037A000FDF778FC0C20FDF761FC002211460D208E
:1037B000FDF770FC0D20FDF759FC002211460E208C
:1037C000FDF768FC0E20FDF751FC002211460F208A
:1037D000FDF760FC0F20FDF749FC00221146102088
:1037E000FDF758FC1020FDF741FC00221146112086
:1037F000FDF750FC1120FDF739FC08BD0010024018
:1038000000B587B0142102A8FCF7ABFD00BF5E48ED
:10381000C06C40F004005C49C8640846C06C00F00D
:103820000400019000BF00BF00BF0846C06C40F01C
:103830008000C8640846C06C00F08000019000BFA2
:1038400000BF00BF0846C06C40F00100C8640846D5
:10385000C06C00F00100019000BF00BF00BF08462F
:10386000C06C40F00200C8640846C06C00F0020062
:10387000019000BF00BF012249F203314FF0904098
:10388000FDF780FB00224FF482614FF09040FDF77E
:1038900079FB012240F203113C48FDF773FB002243
:1038A0004FF402513948FDF76DFB032002901120BF
:1038B0000390002004900320059002A94FF090404F
:1038C000FDF778FA10200290012003900020049068
:1038D0000320059002A94FF09040FDF76BFA0320FA
:1038E000029011200390002004900320059002A96B
:1038F0002648FDF75FFA41F278000290002003901D
:103900000220049002A92148FDF754FA4FF4005018
:1039100002900120039000200490059002A91B480A
:10392000FDF748FA4FF41740029001200390002061
:103930000490059002A94FF09040FDF73BFA4FF438
:10394000006002904FF4041003900020049002A93C
:103950004FF09040FDF72EFA4FF4C0700290012016
:103960000390002004900320059002A90748FDF76A
:1039700021FA002211462820FDF78CFB2820FDF7B4
:1039800075FB07B000BD00000010024000040048B5
:1039900010B51148114908604FF482704860002149
:1039A0000E4881604FF4E061C16000210161012196
:1039B0004161490281611821C161002101624162B6
:1039C00081620721C162002101634163FEF71DFB93
:1039D00008B1FCF750FF10BD003001406801002025
:1039E00010B51148114908604FF4827048600021F9
:1039F0000E4881604FF4E061C16002210161012144
:103A00004161490281611821C16100210162416265
:103A100081620721C162002101634163FEF7F5FA6B
:103A200008B1FCF728FF10BD00380040CC01002091
:103A300010B50B480B49086040F21F304860002168
:103A40000848816040F21F31C1600021016141617D
:103A500080218161FEF7CDFE08B1FCF70CFF10BD9F
:103A6000004401409C03002010B50D480D4908603A
:103A70004FF49640486000210A488160C1600161AE
:103A80000C21416100218161C16101620020054971
:103A900048620846FFF768FA08B1FCF7ECFE10BD73
:103AA00000440040E803002000BFFEE700BFFEE73F
:103AB00010B507210920FFF702FE03211120FFF7AF
:103AC000FEFD00211220FFF7FAFD71210E20FFF705
:103AD000F6FD77210A20FFF7F2FD5F210820FFF7AE
:103AE000EEFD00210420FFF7EAFD00210520FFF78D
:103AF000E6FD00210620FFF7E2FD10BD7047000043
:103B00002DE9F04104460F4600255B48C06800F0EF
:103B1000030090B15848C06800F003002168884253
:103B200009D1206838B15448C068C0F30210401C65
:103B30006168884233D0012531E02068012804D033
:103B4000022809D003281AD10DE04B48006800F084
:103B5000020000B9012514E04748006800F48060C5
:103B600000B901250DE04448006800F4003028B990
:103B70004148006800F4802000B9012501E00125DA
:103B800000BF00BF5DB9D4E90010401E41EA00103B
:103B90003949C96821F0730108433749C860002DCD
:103BA00067D13548006820F0806033490860FDF730
:103BB000EFF9064606E0FDF7EBF9801B022801D974
:103BC000032505E02C48006800F000600028F2D1D1
:103BD00000BFC5BB67B9A0680002217B40EAC16095
:103BE00025490969254A114008432349086120E015
:103BF000012F0FD1A0680002218A0122C2EB5101DE
:103C000040EA41501C4909691D4A114008431A49BC
:103C100008610EE0A0680002217D0122C2EB510183
:103C200040EA416014490969164A114008431249A3
:103C300008611148006840F080600F490860FDF796
:103C4000A7F9064607E014E0FDF7A2F9801B022859
:103C500001D9032505E00848006800F0006000284D
:103C6000F2D000BF2DB904480069A1690843024998
:103C700008612846BDE8F08100100240FF80FF0780
:103C8000FF809FFFFF80FFF9F8B504460026234818
:103C9000806D00F0805018B1FDF794FA054616E0EB
:103CA00000BF1E48806D40F080501C498865084662
:103CB000806D00F08050009000BF00BFFDF782FAD9
:103CC00005461648806D20F0805014498865B5F58A
:103CD000007F07D1802C10D9A02C01D902260CE03E
:103CE00001260AE0802C01D9032606E0802C01D1B0
:103CF000022602E0702C00D101260948006820F05D
:103D000007003043064908600846006800F00700D5
:103D1000B04201D00120F8BD0020FCE700100240B5
:103D20000020024070B50546AC6A2068406820F06B
:103D3000030021684860206E40F0100020660120DA
:103D400084F85D002046FEF75FF970BD70B504464B
:103D5000A56A2846FEF7B7FA70BD70B50446A56A95
:103D60002846FEF728FD70BD70B50546AC6AFDF724
:103D70000FF906462868006800F0200020282CD0A3
:103D80002068406820F0200021684860A06850B991
:103D90006068B0F5827F06D12068406820F003009B
:103DA0002168486005E02068406820F00100216833
:103DB000486032466421204600F048F808B12020CF
:103DC00020660020A4F84600012084F85D00206EE3
:103DD00018B12046FEF718F970BD2046FEF772FABA
:103DE00000BFF9E770B50546AC6AFDF7D1F80646A5
:103DF0002868006800F02000202822D02068406851
:103E000020F020002168486032466421204600F0FE
:103E10005EF818B1206E40F02000206620684068EF
:103E200020F00300216848600020E087A4F84600E5
:103E3000012084F85D00206E18B12046FEF7E4F8FA
:103E400070BD2046FEF7B6FC00BFF9E7F8B50446A2
:103E50000E4615466068B0F5827F0DD1A068B0F5BA
:103E6000004F03D0A068B0F5806F05D120680068CE
:103E700020F040002168086033460022802120465F
:103E8000009500F0D3F828B1206E40F020002066A5
:103E90000320F8BD6068B0F5827F16D1A068B0F548
:103EA000004F03D0A068B0F5806F0ED133460022DA
:103EB0004FF4C0612046009500F03CF828B1206E18
:103EC00040F0200020660320E3E70020E1E7F8B59A
:103ED00004460E461546334600224FF4C051204694
:103EE000009500F027F828B1206E40F020002066F1
:103EF0000320F8BD3346002280212046009500F0C3
:103F000095F828B1206E40F0200020660320F0E7ED
:103F1000334600224FF4C0612046009500F00AF8B5
:103F200028B1206E40F0200020660320E1E7002049
:103F3000DFE700002DE9FC5F04460D4616461F46EC
:103F4000DDF8309000200090FDF722F8A0EB09008A
:103F5000A7EB0008FDF71CF88246206800F10C0B67
:103F600031480068C0EBC00000EB8000000D00FB92
:103F700008F0019050E0B5F5C06F05D126B99BF867
:103F8000000000909DF80000781C002844D0FCF749
:103F9000FFFFA0EB0A00404502D2B8F1000F34D178
:103FA0002068406820F0E000216848606068B0F553
:103FB000827F0DD1A068B0F5004F03D0A068B0F5A6
:103FC000806F05D12068006820F0400021680860FB
:103FD000A06AB0F5005F0DD100BF2068006820F432
:103FE0000050216808602068006840F40050216893
:103FF000086000BF012084F85D0000BF002084F845
:104000005C0000BF0320BDE8FC9F019808B94FF099
:1040100000080198401E0190206880682840B04246
:10402000A9D10020EFE70000300000202DE9F84F73
:1040300004460D4690461E46DDF82890FCF7A8FF82
:10404000A0EB0900371AFCF7A3FF82462C48006852
:10405000C0F3CB307843009045E0701C002842D07C
:10406000FCF796FFA0EB0A00B84200D2A7BB20687D
:10407000406820F0E000216848606068B0F5827F09
:104080000DD1A068B0F5004F03D0A068B0F5806FE7
:1040900005D12068006820F0400021680860A06A0F
:1040A000B0F5005F0DD100BF2068006820F400501B
:1040B000216808602068006840F4005021680860AA
:1040C00000BF012084F85D0000BF002084F85C0080
:1040D00000BF0320BDE8F88FFFE7009800B9002774
:1040E0000098401E0090206880682840A84201D1B6
:1040F000012000E000204045AFD10020EAE70000A9
:1041000030000020704710B5FCF748FF10BD00B527
:1041100097B0442106A8FCF724F9142101A8FCF764
:1041200020F94FF40070FDF707F808B1FCF7A3FB86
:1041300001200690000407900220109003211191A5
:104140000121129128211391072114910221159127
:104150000421169106A8FDF7A3FB08B1FCF78BFB21
:104160000F200190032002900020039004900590FE
:10417000042101A8FDF736FA08B1FCF77CFB17B063
:1041800000BD00000348006840F470000149086069
:104190007047000088ED00E010B50248FEF7E1FB33
:1041A00010BD00005003002010B50248FEF7D9FBF7
:1041B00010BD00009C03002010B502681B4B984204
:1041C00005D0B0F1804F02D0194B984203D122F0B4
:1041D00070024B681A43154B98420BD0B0F1804FD8
:1041E00008D0134B984205D0124B984202D0124B84
:1041F000984203D122F44072CB681A4322F0800324
:104200004C6943EA040202608B68C3620B688362F4
:10421000064B984205D0074B984202D0064B984275
:1042200001D10B6903630123436110BD002C0140E0
:1042300000040040004001400044014090F8241078
:1042400001F0010139B10168496821F40031826A45
:1042500011430268516090F8241001F00201022914
:1042600007D10168496821F48031C26A11430268AC
:10427000516090F8241001F00401042907D101686D
:10428000496821F48021026B11430268516090F863
:10429000241001F00801082907D10168496821F4B8
:1042A0000041426B11430268516090F8241001F004
:1042B0001001102907D10168896821F48051826BAF
:1042C00011430268916090F8241001F02001202928
:1042D00007D10168896821F40051C26B114302685B
:1042E000916090F8241001F04001402913D1016839
:1042F000496821F48011026C114302685160016C1D
:10430000B1F5801F07D10168496821F4C001426CF2
:1043100011430268516090F8241001F08001802957
:1043200007D10168496821F40021826C11430268B9
:104330005160704738B504460020C4F88000FCF78F
:1043400027FE05462068006800F0080008280CD108
:104350006FF07E402B4600224FF400110090204663
:1043600000F07AFA08B1032038BD2068006800F038
:10437000040004280CD16FF07E402B4600224FF43D
:1043800080010090204600F067FA08B10320EBE7B7
:104390002020A067E0670020206600BF84F874003A
:1043A00000BF00BFE0E770B50546AC6A0020A4F886
:1043B0005A00A4F852002046FEF731FC70BD2DE9EA
:1043C000F0410546AC6AA66FE76F2068806800F090
:1043D0008000802807D1212E05D10020A4F85200AA
:1043E000204600F094F82068806800F040004028E3
:1043F00007D1222F05D10020A4F85A00204600F052
:104400003DF8D4F8800040F01000C4F88000204649
:10441000FEF705FCBDE8F08170B50546AC6A28687A
:10442000006800F02000F0B90020A4F8520000BF9E
:1044300000BF2168083151E8001F21F08000216889
:10444000083141E80002002AF3D100BF00BF00BFDD
:10445000216851E8001F41F04000226842E8000155
:104460000029F5D102E02046FEF712FF70BD70B5BD
:104470000446A56A2846FEF70CFF70BD00BF00BFCA
:10448000026852E8002F22F49071036843E800129A
:10449000002AF5D100BF00BF00BF0268083252E811
:1044A000002F22F001010268083242E80013002BBD
:1044B000F3D100BF016E01290CD100BF00BF02681B
:1044C00052E8002F22F01001036843E80012002A8E
:1044D000F5D100BF2021C167002101664166704708
:1044E00010B5044600BF00BF216851E8001F21F04D
:1044F0004000226842E800010029F5D100BF2020D9
:10450000A0670020A0662046FEF7C2FE10BD00BFD7
:1045100000BF026852E8002F22F0C001036843E8A0
:104520000012002AF5D100BF2021816770470000EA
:104530002DE9F84F044600200090BF4920688842CA
:1045400000D100E000BF2169A06808436169084309
:10455000E16940EA010A20680068B849084040EA79
:104560000A00216808602068406820F44050E16833
:10457000084321684860D4F818A0AF4920688842F1
:1045800002D0206A40EA0A0A2068806820F430607D
:1045900040EA0A002168886000BFA9492068884273
:1045A00016D1A848006800F0030030B1012808D0F7
:1045B000022804D0032808D105E0012507E00225E0
:1045C00005E0042503E0082501E0102500BF6FE0A9
:1045D0009D492068884216D19A48006800F00C0076
:1045E00030B1042808D0082804D00C2808D105E0F0
:1045F000002507E0022505E0042503E0082501E089
:10460000102500BF54E091492068884216D18D489A
:10461000006800F0300030B1102808D0202804D005
:10462000302808D105E0002507E0022505E0042533
:1046300003E0082501E0102500BF39E08449206827
:10464000884216D17F48006800F0C00030B1402891
:1046500008D0802804D0C02808D105E0002507E054
:10466000022505E0042503E0082501E0102500BF30
:104670001EE071492068884219D17248006800F430
:10468000406048B1B0F5806F0AD0B0F5006F05D03A
:10469000B0F5406F08D105E0002507E0022505E0F0
:1046A000042503E0082501E0102500BF00E01025E7
:1046B00000BF61492068884245D135B1022D08D03C
:1046C000042D08D0082D0DD109E0FDF74FF806465E
:1046D0000CE0604E0AE0FDF76DF8064606E04FF488
:1046E000004603E000260120009000BF00BF002E1E
:1046F0000AD0606800EB4000B04203D86068000355
:10470000B04202D20120009090E04FF48070A6FBEE
:104710000030D4F804C04FEA5C015F1840F100019A
:10472000624600233846FBF7A5FD8146B9F5407F78
:1047300006D3B9F5801F03D22068C0F80C9075E04D
:104740000120009072E0E069B0F5004F3AD1092DE8
:1047500017D2DFE805F005090D160F16161613001F
:10476000FDF704F8064610E0FDF712F806460CE0E7
:10477000384E0AE0FDF71EF8064606E04FF4004604
:1047800003E000260120009000BF00BF8EB3700040
:10479000616800EB5100B0FBF1F9B9F1100F0ED3D5
:1047A000B9F5803F0BD24FF6F07009EA000BC9F360
:1047B00042004BEA000B2068C0F80CB036E0012044
:1047C000009033E0092D18D2DFE805F005090D1738
:1047D0000F1717171400FCF7C9FF064611E0FCF786
:1047E000D7FF06460DE01B4E0BE0FCF7E3FF064645
:1047F00007E01BE04FF4004603E000260120009094
:1048000000BF00BF96B1606806EB50006168B0FB66
:10481000F1F9B9F1100F07D3B9F5803F04D21FFAAF
:1048200089F02168C86001E00120009000206066E6
:10483000A0660098BDE8F88F00800040F369FFEFA4
:104840000038014088100240004400400048004009
:10485000004C00400024F4002DE9F04104460D46D0
:1048600017469846069E67E0701C002864D0FCF747
:104870008FFBA0EB0800B04200D836BB00BF00BFE2
:10488000216851E8001F21F4D070226842E800013D
:104890000029F5D100BF00BF00BF2168083151E8F1
:1048A000001F21F001002168083141E80002002AC0
:1048B000F3D100BF2020A067E06700BF002084F88C
:1048C000740000BF0320BDE8F0812068006800F09C
:1048D000040080B32068C069C0F3C02058B34FF40F
:1048E00000602168086200BF00BF216851E8001F16
:1048F00021F4D070226842E800010029F5D100BF00
:1049000000BF00BF2168083151E8001F21F00100FD
:104910002168083141E80002002AF3D100BF2020BD
:10492000A067E067C4F8800000BF002084F874002E
:1049300000BF0320C7E7FFE72068C0692840A842FE
:1049400001D1012000E00020B8428DD00020BAE75C
:1049500010B50D480068C069C0F3001080B1102088
:104960000949096808620848FEF7FFF80748006827
:104970004068C0F1FF000649087001200549087031
:104980000148FEF74DF910BDE80300206C0400203B
:10499000000000200100002000BFFEE70248006880
:1049A000C0F30220704700000CED00E010B50028B5
:1049B00004DB0A07130E054A135406E00A07140E17
:1049C000034A00F00F031B1FD45410BD00E400E0A5
:1049D00018ED00E0002106E0012100BF0A00A1F16E
:1049E0000103D9B2FAD10200A0F10103D8B2F3D188
:1049F0007047000088B0FCF7DDFA8EA207CA05AB4D
:104A000007C38FA207CA02AB07C3FFF780FBFEF7FD
:104A1000F7FEFEF7B3FEFEF7BBFFFEF7E1FFFFF781
:104A200023F8FFF705F88948FEF7D8FA8848FDF71C
:104A300065FB8848FDF762FB012211024FF09040B0
:104A4000FCF7A0FA012251024FF09040FCF79AFACD
:104A50004FF47A73202280A17C48FEF74BFB4FF481
:104A6000FA70FCF7BDF84FF47A731E2283A17748E1
:104A7000FEF740FBFBF738FEC820FCF7B1F84FF417
:104A80007A73152285A17148FEF734FBFEF7D0FD3D
:104A900048B16423182287A16C48FEF72BFB6420E1
:104AA000FCF79EF805E064231F2289A16748FEF702
:104AB00021FB0FE064230B2205A96448FEF71AFBD3
:104AC0006423022274A16148FEF714FB4FF4FA70CC
:104AD000FCF786F8FBF7EEFD0028EBD064231322E9
:104AE00083A15A48FEF706FB6420FCF779F809E039
:104AF00064230C2202A95548FEF7FCFA4FF4FA7021
:104B0000FCF76EF8FEF718FE0028F1D0642314229B
:104B10007CA14E48FEF7EEFA6420FCF761F8FBF743
:104B20000DFD4FF47A7314227CA14848FEF7E2FA97
:104B3000C820FCF755F8FEF7D9FD4FF47A7315221B
:104B40007CA14248FEF7D6FAC820FCF749F8FEF7E8
:104B50002DFD4FF47A7314227CA13C48FEF7CAFA6B
:104B6000C820FCF73DF8FEF7A3FF64231A227DA1BD
:104B70003648FEF7BFFAAA2081490870BB2048706A
:104B80000020804908708048FDF7A8FE4FF47A7332
:104B90001D227EA12D48FEF7ADFA49E07948007844
:104BA000042845D181484078754988727F48C0788B
:104BB000C8727E48407908730420FEF762FD0746FC
:104BC0000620FEF75EFD8046A7EB080000F01F05FB
:104BD0000024002612E0032101A8FEF735FD9DF810
:104BE000040000049DF8051040EA01209DF806101D
:104BF0000843C0F311094C44701CC6B2AE42EADB54
:104C0000200C5F494873200A8873CC7308460574EA
:104C10000F21801CFBF7D2FD59494874CC208874C1
:104C200013220A48FEF7D0FA00205649087000BF48
:104C3000B4E70000414443204552524F5221000046
:104C40004D494D55204552524F522100E803002056
:104C500068010020CC01002044454255473A2050CD
:104C60006F776572204F6E20283556202620312E12
:104C70003856292E2E2E0D0A0000000044454255BC
:104C8000473A20424C452048617264776172652042
:104C90005265736574204F4B0D0A00004445425520
:104CA000473A20424C4520496E6974204F4B0D0A0B
:104CB0000000000044454255473A204D41583330EA
:104CC00031303120466F756E64210D0A00000000FE
:104CD0004552524F523A204D4158333031303120F5
:104CE000436865636B204661696C6564210D0A0049
:104CF00044454255473A2041444320466F756E640F
:104D0000210D0A0044454255473A204D494D552052
:104D1000466F756E64210D0A00000000444542553F
:104D2000473A2041444320496E6974204F4B0D0A95
:104D30000000000044454255473A204D494D55205A
:104D4000496E6974204F4B0D0A00000044454255DE
:104D5000473A2050504720496E6974204F4B0D0A46
:104D60000000000044454255473A20505047204338
:104D70006F6E666967757265642E0D0A000000002B
:104D800033010020020000209C03002044454255CE
:104D9000473A2053797374656D205374617274209F
:104DA0004C6F6F702E2E2E0D0A00000003000020A5
:104DB0004FF04070E1EE100A70473C53545F57418A
:104DC0004B453D464F52455645523E003C53545F7D
:104DD000545820504F5745523D2B322E353E003C03
:104DE00053545F4E414D453D484A2D3133312D4C92
:104DF00059582D353E003C53545F5345435245545A
:104E00003D3132333435363E003C53545F424155D8
:104E1000443D3131353230303E003C53545F434FD6
:104E20004E5F4D494E5F4741503D37353E000000D3
:104E3000000000000000000001020304060708094A
:104E40000000000001020304A0860100400D0300E1
:104E5000801A060000350C0040420F0080841E00BE
:104E600000093D0000127A000024F40000366E01B3
:104E70000048E801006CDC02984E000800000020A9
:104E800034000000D0010008CC4E0008340000209F
:104E90002C0B0000EC0100080000000000000000E6
:104EA00000000000000000000000000000120000F0
:104EB00000000000000005000000000000000000ED
:0C4EC000100000000100000000093D008F
:040000050800019559
:00000001FF
